:020000040800F2
:100000000814002045010008592800083124000880
:10001000492800081B080008013000080000000003
:10002000000000000000000000000000812800081F
:100030002D080008000000005B280008432B000882
:100040005F0100085F0100085F0100085F01000810
:100050005F0100085F0100085F0100085F01000800
:100060005F0100085F0100085F0100085F010008F0
:100070005F0100085F0100085F0100085F010008E0
:100080005F0100085F0100085F0100085F010008D0
:100090005F0100085F0100085F0100085F010008C0
:1000A0005F010008A92B00085F0100085F0100083C
:1000B000B52B0008C12B0008CD2B00085F010008FC
:1000C0005F0100085F0100085F0100085F01000890
:1000D0005F010008F52F00085F0100085F010008BC
:1000E0005F0100085F0100085F0100085F01000870
:1000F000FD2B00085F0100085F0100085F01000898
:100100005F0100085F010008D92B00085F010008AB
:100110005F0100085F010008E52B0008F12B0008D3
:100120005F0100085F0100085F0100085F0100082F
:10013000DFF80CD000F0DCFA004800475D39000819
:10014000081400200648804706480047FEE7FEE7FF
:10015000FEE7FEE7FEE7FEE7FEE7FEE7FEE7FEE777
:10016000A52B000831010008202A04DB203A21FADF
:1001700002F00021704721FA02F3D040C2F12002C0
:100180009140084319467047D2B201E000F8012BB4
:10019000491EFBD270470022F6E710B513460A4607
:1001A00004461946FFF7F0FF204610BD70B506461D
:1001B00002F04EFF046805460A220021304600F096
:1001C00049F82C6070BD30B50B4601460020202256
:1001D000012409E021FA02F59D4205D303FA02F554
:1001E000491B04FA02F52844151EA2F10102F1DCB4
:1001F00030BD2DE9F05F0546002092469B468846BB
:100200000646814640241BE0284641464746224692
:10021000FFF7AAFF53465A46C01A914110D3114620
:100220001846224600F076FA2D1A67EB01084F4671
:1002300022460120002100F06DFA17EB00094E4123
:10024000201EA4F10104DFDC484631462A4643461D
:10025000BDE8F09F2DE9F04791460F4680460446E1
:10026000002614F8015B2DB100F076FA0068405DBD
:10027000C007F6D12B2D02D02D2D18D0641E4A4672
:100280003946204600F06CFA27B13968A14201D105
:10029000C7F8008071054FF002040BD540420028DA
:1002A00003DD02F0D5FE0460A007BDE8F08746F448
:1002B0008066E4E70028F8DA02F0CAFE04606FF016
:1002C0000040F2E710B5141E73F1000408DA401C78
:1002D00041F1000192185B411A4301D120F0010065
:1002E00010BD2DE9F04D92469B4611B1B1FA81F255
:1002F00002E0B0FA80F22032904600F00BFA044699
:100300000F4640EA0A0041EA0B0153465A460843A9
:1003100013D0114653EA010019D0C8F140025046EB
:10032000FFF722FF05460E4650465946424600F06A
:10033000F1F9084305D0012004E020463946BDE824
:10034000F08D0020054346EAE0762C4337430A98B7
:100350006305E40AA0EB08000022FD0A44EA4754C2
:100360000A3002D500200146E9E70105101969416C
:10037000DDE9084500196941BDE8F04DA2E72DE926
:10038000FE4F804681EA0300C00F0C46009021F02A
:10039000004123F00045B8EB0200A94105D24046D8
:1003A000214690461C460B46024623F0004010436F
:1003B00047D0270DC7F30A00C3F30A510290401A31
:1003C000019040286BDAC3F3130040F4801B0098BF
:1003D000924620B10023D2EB030A63EB0B0B01988A
:1003E0005946C0F14002504600F094F906460D46C9
:1003F00050465946019A00F09CF910EB0800614103
:10040000002487EA115284EAE7731A4340D0009A25
:1004100062B3019A012A4FEA075215DC001B61EB17
:1004200002014FF0004202EA0752CDE90042001CEF
:1004300041F5801132462B46FFF753FF03B0BDE86C
:10044000F08F40462146F9E7001B61EB0201001CDA
:1004500041F5801300185B412018A2F5001747EB07
:10046000030140EAD570B6196D4111E06D084FEAFD
:10047000360645EAC0754FEA0752001B61EB0201E0
:10048000001C41F5801149084FEA30000019514124
:1004900032462B4603B0BDE8F04FFFF713BF00987C
:1004A000012240000023D0EB020263EBE0730098CE
:1004B00021464FEAE074B8EB000061EB0401E9E784
:1004C00083F000435BE781F0004158E72DE9FE4FE0
:1004D00081EA030404F0004421F0004100944FF04D
:1004E000000B23F0004350EA01045ED052EA0304FB
:1004F0005BD0C3F30A54C1F30A552C44A4F2F3347D
:100500000194A0FB0254C1F3130141F48011C3F321
:10051000130343F4801301FB024400FB034E840ADF
:10052000970A44EA815447EA8357A4FB0768029577
:100530008D0A05FB07854FEA932C04FB0C54270515
:10054000029D4FEA065847EA1637B5EB08056EEBF1
:10055000070C870E920E47EA811742EA8312A7FB27
:100560000201B6EB0B0164EB00042B0D43EA0C33E4
:100570005E1844EB1C50DA465146E7FB0201C5F316
:1005800013044FEA0B3343EA14534FEA0432019C3D
:1005900043EA0603A4F10C040294009CCDE900B4E4
:1005A000FFF79FFE03B0BDE8F08F00200146F9E79A
:1005B0002DE9F04D81EA030404F0004B21F00045E1
:1005C00014464FF0000A23F0004150EA050220D003
:1005D00054EA01021DD0C5F30A570246C5F31303BE
:1005E000C1F31300C1F30A5640F4801543F480139D
:1005F000A7EB0608101BD64608F2FD3873EB050082
:1006000002D308F1010801E092185B41B8F1000F34
:1006100003DA00200146BDE8F08D00204FF4801180
:10062000064684460EE0171B73EB050705D3121B25
:1006300063EB050306434CEA010C49084FEA30001E
:1006400092185B4150EA0107EDD152EA030012D043
:1006500082EA040083EA0501084305D0101BAB4180
:1006600006D20122002306E000224FF0004302E000
:100670006FF0010253101AEB06004CEB085110EB1F
:100680000A0041EB0B01BDE8F04DFFF71BBEC1F3C3
:100690000A52C1F3130140F2FF3341F480119A4230
:1006A00002DA00200146704740F233439A42A2F238
:1006B000334202DC5242FFF757BD00F02BB8000076
:1006C00030B5041E71F1000404DB4FF000444042D9
:1006D00064EB0101141E73F1000405DB1C464FF0AE
:1006E0000043524263EB0403994208BF904230BD7D
:1006F000064C074D06E0E06840F0010394E807006F
:1007000098471034AC42F6D3FFF716FD583D000869
:10071000783D0008202A04DB203A00FA02F100208C
:1007200070479140C2F1200320FA03F3194390402F
:100730007047202A06DBCB17203A41FA02F043EA41
:10074000E07306E041FA02F3D040C2F1200291408A
:10075000084319467047000000487047543D0008A0
:100760002DE9F05F82460078002715468B460AF196
:100770000104B946302801D09DB113E014F8010BF3
:100780000127782803D0582801D045B10AE00DB1DF
:10079000102D07D10027102514F8010B02E00825C1
:1007A00000E00A250026B0460EE005FB080005FB28
:1007B00006F1012701EB10461FFA80F8B6F5803FDD
:1007C00000D3B94614F8010B294600F018F80028A8
:1007D000EBDABBF1000F05D00FB1641E00E0544608
:1007E000CBF80040B9F1000F06D002F031FC022135
:1007F0000160C81EBDE8F09F48EA0640FAE73A28C3
:1008000000D2303820F02002412A01D3A2F1370073
:10081000884201D34FF0FF307047FEE7002101E02E
:1008200000F8011B0278002AFAD17047704790F84F
:1008300021100022022905D00421816380F82020A4
:100840000120704701680B6823F00E030B600168FC
:100850000B6823F001030B6090F84030D0F83CC0E7
:10086000012101FA03F3CCF8043080F8211080F85C
:1008700020201046704700002DE9F05F002490F81A
:100880002110022903D004218163012490E0016832
:100890000A6822F00E020A6001680A6822F001026A
:1008A0000A60454A0168454BDFF814C1454D464E84
:1008B000464FDFF81C81DFF81C91DFF81CA1DFF840
:1008C0001CB1DFF81CE1914232D9994201D10121DA
:1008D0002BE0614501D1102127E0A94202D14FF45C
:1008E000807122E0B14202D14FF480511DE0B94243
:1008F00002D14FF4803118E0414502D14FF480110C
:1009000013E0494501D101210FE0514501D11021EA
:100910000BE0594502D14FF4807106E0714502D1D8
:100920004FF4805101E04FF480312E4A116036E0DF
:10093000994201D1012130E0614501D110212CE023
:10094000A94202D14FF4807127E0B14202D14FF4A5
:10095000805122E0B94202D14FF480311DE041457F
:1009600002D14FF4801118E0914202D14FF0807112
:1009700013E0494501D101210FE0514501D110217A
:100980000BE0594502D14FF4807106E0714502D168
:100990004FF4805101E04FF48031134A516001213E
:1009A00080F82110002180F82010416B01B18847A8
:1009B0002046BDE8F09F0000800002400800024091
:1009C0001C00024030000240440002405800024037
:1009D0006C000240080402401C0402403004024043
:1009E0004404024004040240000002402DE9F84F94
:1009F0004FF0000C00230A68002A7DD0DFF8F88150
:100A00000F2708F1040909F1040A0AF1040B012275
:100A100002FA0CF60A683240B2426ED1DFF8DCE12D
:100A20004C68A4EB0E0574452BD00DDC032C34D0A0
:100A300005DC34B3012C19D0022C2FD11BE0112C72
:100A400016D0122C2AD119E0B5F5881F19D006DC72
:100A5000B5F5803F15D0B5F5801F1FD111E0B5F574
:100A6000001F0ED0B5F5041F18D10AE0CB6815E0C1
:100A7000CB681B1D12E0CB6808330FE0CB680C334A
:100A80000CE08B6823B1012B04D00823466105E0FC
:100A9000042303E00823066100E00023B2F5807F11
:100AA00001D2054601E000F1040502D24FEA8C04B0
:100AB00003E0ACF108044FEA84042E6807FA04FE50
:100AC00026EA0E0603FA04F446EA04042C604C6895
:100AD00014F0805F11D04A4CA56945F00105A5616D
:100AE000A46904F0010400942CF0030404F1804490
:100AF00004F58034A66801E07CE074E04FEA8C7570
:100B00004FEA157507FA05FE26EA0E0EA0F180469B
:100B1000B6F5843628D0A0F18046B6F5863625D0C5
:100B2000A0F18046B6F5883622D0A0F18046B6F511
:100B30008A361FD0A0F18046B6F58C361CD0A0F1C5
:100B40008046B6F58E3619D0062606FA05F545EA32
:100B50000E05A5604C6814F4803F11D0D8F8004011
:100B60001443C8F8004010E00026EEE70126ECE749
:100B70000226EAE70326E8E70426E6E70526E4E797
:100B8000D8F800409443C8F800404C6814F4003F83
:100B900005D0D9F800401443C9F8004004E0D9F862
:100BA00000409443C9F800404C6814F4801F05D0FD
:100BB000DAF800401443CAF8004004E0DAF80040D4
:100BC0009443CAF800404C6814F4001F05D0DBF8C9
:100BD00000402243CBF8002005E0DBF8004024EA87
:100BE0000202CBF800200CF1010C0A6832FA0CF278
:100BF0007FF40DAFBDE8F88F000401400000111034
:100C0000001002408068084201D001207047002097
:100C10007047C26821EA0203114043EA01410161C1
:100C20007047002A01D001617047090401617047D3
:100C300001488068704700002000002070B504461D
:100C4000002C04D094F83D00002510B106E00120EE
:100C500070BD84F83C50204600F0C6F8242084F88B
:100C60003D002068016821F00101016020680168F1
:100C700041F4004101602068016821F400410160F5
:100C800000F072FA544B6168994203D85349884284
:100C900003D304E05249884201D2012070BD51497A
:100CA000B0FBF1F12268D2F804C02CF03F0C4CEA02
:100CB000010CC2F804C062689A4201D84A1C07E0DD
:100CC0004FF4967251434FF47A72B1FBF2F14A1C21
:100CD0002168D1F820C02CF03F0C42EA0C020A62D5
:100CE0006168994210D84900401EB0FBF1F2521CD5
:100CF000C2F30B02042A01D2042026E0B0FBF1F07B
:100D0000401CC0F30B0020E0A268002A50D001EB89
:100D1000C10303EB0113A0F1010CBCFBF3F35B1C5B
:100D200043F480431B051B0D4AD0002A4AD001EB37
:100D3000C10202EB0111401EB0FBF1F0401CC0F3F8
:100D40000B0040F4804040F400402168CA6922F062
:100D5000FF0222F44F421043C861216AE069014357
:100D60002068026822F0C00211430160E168206936
:100D700001432068826822F0FF0222F403421143FB
:100D80008160A169606901432068C26822F0FF02A6
:100D90001143C1602068016841F0010101602564D0
:100DA000202084F83D00256384F83E50002070BD6B
:100DB00001EB4103A0F1010CBCFBF3F35B1CB1E7B9
:100DC0000120C2E701EB4101401EB0FBF1F0401CE5
:100DD000C0F30B00B7E70000A086010080841E006E
:100DE00000093D0040420F0030B585B00021009160
:100DF0000191029103911E4D03681E4C12210322A2
:100E00001D48AB4216D1A36943F00803A361A3694F
:100E1000039203F008030493C023CDE9003169462F
:100E2000FFF7E4FDE06940F40010E061E06900F4E0
:100E3000001019E0114DAB4217D1A36943F008032C
:100E4000A361A369039203F0080304934FF4406382
:100E5000CDE900316946FFF7C9FDE06940F4800043
:100E6000E061E06900F48000049005B030BD00004E
:100E70000054004000100240000C014000580040A7
:100E80000248816802781144816070472000002088
:100E900010B50748016841F010010160032000F01F
:100EA0008BF8002000F006F800F026F8002010BDB6
:100EB0000020024070B504460D4D4FF47A71287839
:100EC000B1FBF0F00B490968B1FBF0F000F0BEFB9C
:100ED00008B1012070BD102C07D200222146501EFF
:100EE00000F036F86C60002070BD012070BD00007D
:100EF000200000202C0000200C4808B5816941F03A
:100F000001018161816901F001010091C16941F034
:100F10008051C161C06900F0805000900448416870
:100F200021F0E06141F00071416008BD0010024015
:100F30000000014000280ADB00F01F01012202FA34
:100F400001F14009800000F1E020C0F80011704775
:100F500010B4184B1B68C3F30223C3F1070CBCF198
:100F6000040F01D94FF0040C1C1D072C01D20023E3
:100F700000E0DB1E012404FA0CFCACF1010C0CEACD
:100F80000101994004FA03F35B1E1A401143002843
:100F900006DB00F1E020090180F8001410BC704766
:100FA00000F00F0000F1E020090180F8141D10BCD2
:100FB000704700000CED00E000F00700064A1168E1
:100FC0004FF6FF03194041EA002040F0FD7040F069
:100FD00080601060704700000CED00E02DE9F047E4
:100FE00004460D46002C17D0DFF85C81D8F80000CD
:100FF00000F00700A84212D2D8F8000020F0070045
:101000002843C8F80000D8F8000000F00700A84204
:1010100005D00120BDE8F0870120BDE8F0872068F9
:101020004A4E10F0020F14D010F0040F03D0706875
:1010300040F4E0607060207810F0080F03D0706812
:1010400040F460507060706820F0F001A0680843C0
:101050007060207810F0010F3AD06068012806D047
:1010600002280BD0316811F0020F27D00AE0316856
:1010700011F4003F06D10120BDE8F087316811F07E
:10108000007F18D0716821F0030108437060FFF7FA
:10109000CFFD07467068616800F00C00B0EB810F6F
:1010A00016D041F28839FFF7C3FDC01B484508D967
:1010B0000320BDE8F0870120BDE8F0870120BDE8EE
:1010C000F0877068616800F00C00B0EB810FEAD126
:1010D000D8F8000000F00700A8420FD9D8F80000A7
:1010E00020F007002843C8F80000D8F8000000F0FE
:1010F0000700A84202D00120BDE8F087207810F058
:10110000040F05D07068E16820F4E0600843706067
:10111000207810F0080F06D07068216920F4605024
:1011200040EAC100706000F03FF87168084AC1F3FE
:101130000311515CC8400749086007480068FFF781
:10114000B9FE0020BDE8F0870020024000100240F8
:10115000B83C00082C000020240000200148006852
:10116000704700002C00002000B5FFF7F7FF04498E
:101170004968044AC1F30221515CC84000BD000027
:1011800000100240C83C000800B5FFF7E7FF044923
:101190004968044AC1F3C221515CC84000BD000047
:1011A00000100240C83C000885B015A08368426862
:1011B0000168C068039302920191049014A0006832
:1011C0000090144B5968144801F00C02042A11D005
:1011D000082A0FD101A8C1F38342805C11F4803F3B
:1011E0000AD05968C1F340411DF801100A4A504322
:1011F000B0FBF1F005B07047084905B048437047AF
:1012000002030405060708090A0B0C0D0E0F101047
:10121000010200000010024000127A0000093D00A7
:101220002DE9F84F0446002C0FD02078F84D10F02F
:10123000010F6CD0686800F00C0004280CD06868BE
:1012400000F00C00082803D010E00120BDE8F88F62
:10125000686810F4803F09D0286810F4003F56D029
:101260006068002853D10120BDE8F88F6068B0F5B0
:10127000803F15D0C8B1B0F5A02F1FD0286820F44A
:1012800080302860286820F480202860606858B387
:10129000FFF7CEFC0646286810F4003F17D036E072
:1012A000286840F480302860F0E7286820F4803017
:1012B0002860286820F480202860E7E7286840F448
:1012C00080202860286840F480302860DEE7FFF73F
:1012D000AFFC801B642802D90320BDE8F88F286882
:1012E00010F4003FF3D012E0FFF7A2FC0646286896
:1012F00010F4003F0BD0FFF79BFC801B642802D941
:101300000320BDE8F88F286810F4003FF3D120785F
:10131000C04F10F0020F4FF0010B4FF0000854D0F7
:10132000686810F00C0F14D0686800F00C000828F2
:1013300003D1686810F4803F0BD0206978B3C7F8F8
:1013400000B0FFF775FC0646286810F0020F12D0B7
:101350001DE0286810F0020F05D02069012802D096
:101360000120BDE8F88F2868616920F0F80040EAA4
:10137000C100286029E0FFF75BFC801B022802D92E
:101380000320BDE8F88F286810F0020FF3D028681A
:10139000616920F0F80040EAC100286015E0FFE72D
:1013A000C7F80080FFF744FC0646286810F0020FDB
:1013B0000BD0FFF73DFC801B022802D90320BDE8BB
:1013C000F88F286810F0020FF3D1207810F0080F82
:1013D00030D09148A169C1B1C0F800B0FFF728FC36
:1013E0000646686A10F0020F0BD1FFF721FC801B44
:1013F000022802D90320BDE8F88F686A10F0020FB6
:10140000F3D0012001F02AFA14E0C0F80080FFF7C1
:101410000FFC0646686A10F0020F0BD0FFF708FCBD
:10142000801B022802D90320BDE8F88F686A10F0FB
:10143000020FF3D1207810F0040F6FD00026E86976
:1014400010F0805F08D1E86940F08050E861E869F9
:1014500000F0805000900126DFF8C0A1DAF800000B
:1014600010F4807F1BD1DAF8000040F48070CAF8D5
:101470000000FFF7DDFB8146DAF8000010F4807F02
:101480000DD1FFF7D5FBA0EB0900642802D903209A
:10149000BDE8F88FDAF8000010F4807FF1D0E06842
:1014A000012816D0D0B1052821D0286A20F00100EB
:1014B0002862286A20F004002862E06841F2883A35
:1014C00068B3FFF7B5FB8146286A10F0020F17D00A
:1014D0003AE0286A40F001002862EEE7286A20F02E
:1014E00001002862286A20F004002862E5E7286AE3
:1014F00040F004002862286A40F001002862DCE71E
:10150000FFF796FBA0EB0900504502D90320BDE888
:10151000F88F286A10F0020FF2D015E01AE0FFE70A
:10152000FFF786FB8146286A10F0020F0CD0FFF708
:101530007FFBA0EB0900504502D90320BDE8F88FDE
:10154000286A10F0020FF2D1012E03D1E86920F0D1
:101550008050E861E069E8B3696801F00C0108298E
:101560005ED0022810D0C7F86080FFF761FB044608
:10157000286810F0007F66D0FFF75AFB001B022896
:1015800041D90320BDE8F88FC7F86080FFF750FB12
:101590000646286810F0007F0BD0FFF749FB801B40
:1015A000022802D90320BDE8F88F286810F0007FD8
:1015B000F3D1206AB0F5803F05D16868A16820F4B6
:1015C000003008436860616A206A0843696821F452
:1015D000741100E037E008436860C7F860B0FFF7B7
:1015E00027FB0446286810F0007F2CD1FFF720FB72
:1015F000001B022802D90320BDE8F88F286810F0EC
:10160000007FF3D01FE0286810F0007FB4D11AE00B
:10161000001002400000424280044242007000403C
:1016200001280DD06868226A00F48031914204D10B
:10163000616A00F47010884205D00120BDE8F88F7F
:101640000120BDE8F88F0020BDE8F88F401EB0F102
:10165000807F01D3012070474FF0E0214861044AA8
:10166000F02010700020886107200861002070477A
:1016700023ED00E07047704730B490F83C20012A19
:101680003AD0012480F83C40022280F83D200268D4
:10169000D2F804C093682CF0700C0D6845EA0C0C6D
:1016A000C2F804C00268A2F1804CBCF5963C16D08A
:1016B000A2F1804CBCF59A3C11D0B2F1804F0ED013
:1016C000A2F1804CBCF5806C09D0A2F1804CBCF535
:1016D000006C04D0A2F1804CBCF5406C04D123F026
:1016E000800349681943916080F83D40002180F8EB
:1016F0003C1030BC0020704730BC0220704710B551
:101700000446002C03D094F83D0010B107E00120FE
:1017100010BD002084F83C00204600F01FF8022095
:1017200084F83D00211D206801F06EFA012084F844
:10173000460084F83E0084F83F0084F8400084F8B6
:10174000410084F8420084F8430084F8440084F89F
:10175000450084F83D00002010BD000008B54B4A4C
:1017600001684B4891420ED1816941F40061816169
:101770008069002200F40060009011461920FFF7F4
:10178000E7FB19207CE0B1F1804F11D0414A914232
:101790001DD1C16941F00201C161C069002200F0A0
:1017A0000200009011461D20FFF7D2FB1D2067E0CC
:1017B000C16941F00101C161C069002200F001006E
:1017C000009011461C20FFF7C3FB1C2058E0324A52
:1017D00091420ED1C16941F00401C161C06900228A
:1017E00000F00400009011461E20FFF7B1FB1E2000
:1017F00046E02A4A91420ED1C16941F00801C16117
:10180000C069002200F00800009011463220FFF766
:101810009FFB322034E0224A91420ED1C16941F04F
:101820001001C161C069002200F010000090114653
:101830003620FFF78DFB362022E01A4A91420ED166
:10184000C16941F02001C161C069002200F020009F
:10185000009011463720FFF77BFB372010E0124A3B
:10186000914211D1816941F4005181618069002266
:1018700000F40050009011462C20FFF769FB2C204B
:10188000BDE80840FFF756BB08BD0000002C014032
:10189000001002400004004000080040000C00401E
:1018A00000100040001400400034014090F83D104A
:1018B000012901D001207047022180F83D10016804
:1018C000CA6842F00102CA600068A0F18041B1F527
:1018D00096311CD0A0F18041B1F59A3117D0B0F10A
:1018E000804F14D0A0F18041B1F580610FD0A0F1FC
:1018F0008041B1F500610AD0A0F18041B1F54061AD
:1019000005D0016841F00101016000207047816845
:1019100001F007010629F8D0016841F001010160DA
:10192000F3E770B5044694F83C00012818D001256F
:1019300084F83C50022084F83D002068826822F040
:10194000770222F47F4282600868502832D00EDC91
:1019500020284DD006DC00284AD010284DD147E081
:10196000022070BD302843D0402846D136E06028A0
:101970002AD0702806D0B0F5805F3ED0B0F5005F69
:101980003BD10BE0CB684A688968206801F084F994
:101990002068816841F0770181602EE0CB684A6859
:1019A0008968206801F078F92068816841F48041F5
:1019B000816022E0CA684968206801F080F95021FE
:1019C000206801F074F918E0CA684968206801F0DD
:1019D00089F96021206801F06AF90EE0CA68496857
:1019E000206801F06CF94021206801F060F904E002
:1019F00022680146104601F05AF984F83D50002053
:101A000084F83C0070BD704770B5044620680169D9
:101A10004FF0000511F0020F17D0C16811F0020F4E
:101A200013D0E91E0161012020772068806910F041
:101A3000030F03D02046FFF7E6FF05E0204600F045
:101A40009DF8204600F09BF825772068016911F089
:101A5000040F18D0C16811F0040F14D06FF0040106
:101A60000161022020772068806910F4407F03D054
:101A70002046FFF7C8FF05E0204600F07FF820462B
:101A800000F07DF825772068016911F0080F18D063
:101A9000C16811F0080F14D06FF008010161042033
:101AA00020772068C06910F0030F03D02046FFF7AD
:101AB000AAFF05E0204600F061F8204600F05FF83C
:101AC00025772068016911F0100F18D0C16811F056
:101AD000100F14D06FF010010161082020772068EA
:101AE000C06910F4407F03D02046FFF78CFF05E06B
:101AF000204600F043F8204600F041F825772068A2
:101B0000016911F0010F09D0C16811F0010F05D072
:101B10006FF001010161204600F032F82068016990
:101B200011F0800F09D0C16811F0800F05D06FF05F
:101B3000800101612046FFF79DFD2068016911F0D9
:101B4000400F09D0C16811F0400F05D06FF040017F
:101B50000161204600F0C8F82068016911F0200FEB
:101B60000BD0C16811F0200F07D06FF02001016188
:101B70002046BDE87040FFF77EBD70BD70477047DE
:101B80002DE9F05F544D064600680027514C05F1E1
:101B9000180805F1300905F1480AB0F1804F40D12D
:101BA0002068401C20606168884200D12760287846
:101BB00038B1A868E968401C41F10001A860E960FB
:101BC00002E00021A960E96098F80010404639B1B0
:101BD0008168C268491C42F100028160C26002E073
:101BE00000228260C26099F80010484639B18168CD
:101BF000C268491C42F100028160C26002E000221A
:101C00008260C2609AF80010504639B18168C2689B
:101C1000491C42F100028160C26002E00022826041
:101C2000C2602E493068DFF8B8B00968884204D134
:101C30004FF480715846FEF7ECFF2A493068096876
:101C4000884240D180215846FEF7E3FF2068401CBF
:101C500020606168884200D12760287838B1A86880
:101C6000E968401C41F10001A860E96002E0002140
:101C7000A960E96098F80010404639B18168C268EF
:101C8000491C42F100028160C26002E000228260D1
:101C9000C26099F80010484639B18168C268491C91
:101CA00042F100028160C26002E000228260C260F4
:101CB0009AF80010504641B18168C268491C42F14F
:101CC00000028160C260BDE8F09F00228260C260B5
:101CD000F9E700000400002078040020E000002064
:101CE0000010014028010020704770477047000035
:101CF000F8B5044622681068D168536900F00F0CEB
:101D0000BCF1000F0AD110F0200F07D011F0200F06
:101D100004D02046BDE8F84001F023B80025BCF10E
:101D2000000F6DD003F0010C01F490765CEA06061A
:101D300066D010F0010F06D011F4807F03D0226C22
:101D400042F00102226410F0040F06D013F0010FDC
:101D500003D0226C42F00202226410F0020F06D07F
:101D600013F0010F03D0226C42F00402226410F041
:101D7000080F08D001F0200252EA0C0203D0226CB6
:101D800042F008022264226C002A2FD010F0200FAB
:101D900005D011F0200F02D0204600F0E2FF2068AD
:101DA0004069C0F38010216C11F0080F00D110B30E
:101DB000204600F0B1FF2068416911F0400F16D0B5
:101DC000416921F040014161A06B60B14749416325
:101DD000A06BFEF751FD002808D0A06B416B01B04D
:101DE000BDE8F04008472046FFF780FFF8BD2046D9
:101DF000FFF77CFFF8BD2046FFF778FF2564F8BDAC
:101E0000236B012B5BD110F0100F58D011F0100F85
:101E100055D010685068009050694FF0200310F0C2
:101E2000400F2ED0A16B0868406880B20028E6D031
:101E3000B4F82CC08445E2D9E0858869202818D000
:101E4000D06820F48070D0602068416921F00101E1
:101E500041612068416921F04001416184F83E30D0
:101E600025632068C16821F01001C160A06BFEF7F6
:101E7000DEFCA08DE18D401A81B22046FFF735FFD0
:101E8000F8BDA08DE18D401A81B2E08D0028F7D019
:101E90000029F5D0D06820F49070D06020684269A5
:101EA00022F00102426184F83E3025632068C26856
:101EB00022F01002C2602046FFF717FFF8BD10F0B5
:101EC000800F07D011F0800F04D02046BDE8F84005
:101ED00001F025B810F0400FF0D011F0400FEDD018
:101EE0002046BDE8F84000F02FBF0000092D000893
:101EF00070B50446002C04D094F83D00002510B1C4
:101F000006E0012070BD84F83C50204600F022F825
:101F1000242084F83D002068C16821F40051C1608C
:101F2000204600F07DFF2068016921F490410161A5
:101F30002068416921F02A0141612068C16841F4AB
:101F40000051C1602564202084F83D0084F83E00E3
:101F5000002070BD2DE9F04385B000240094019469
:101F6000029403946A49694ED0F800C00D1502220C
:101F700003236848B4451ED1CE6946F40026CE61DD
:101F8000CE6906F4002604968E6946F010068E612E
:101F9000896901F01001CDE90331CDE900526946AC
:101FA0000546FEF723FD4FF40060CDE900046946C5
:101FB0002846029429E0584F0426DFF86091BC457A
:101FC00028D1CD6945F48015CD61CD6905F4801522
:101FD00004958D6945F010058D618D6905F010053A
:101FE00004958D6945F020058D618969039301F0A1
:101FF00020010491B102CDE900126946FEF7F6FC1A
:10200000CDE90064694648460294FEF7EFFC05B04E
:10201000BDE8F0834248DFF80C814715844526D19E
:10202000886940F480408861886900F480400490A9
:10203000886940F0040088618869694600F00400FE
:10204000CDE90330CDE900724046FEF7CFFCCDE983
:102050000054694640460294FEF7C8FC002211462F
:102060002520FEF775FF2520FEF764FFCFE72E48F9
:1020700084451DD1C86940F40030C861C86900F4C6
:1020800000300490886940F00400886188696946DE
:1020900000F00400CDE90330CDE900624046FEF7D0
:1020A000A5FC0820CDE90004694640460294ACE74F
:1020B0001E488445ABD1C86940F48020C861C86916
:1020C00000F480200490886940F0200088618869CD
:1020D000694600F0200004904FF48070CDE90002C2
:1020E0004D4603934846FEF781FCCDE900746946EE
:1020F00028460294FEF77AFC0D48416821F0300131
:1021000041F0E06141F03001416080E7004C004067
:102110000010024000100140005000400014014037
:1021200000380140000801400044004000480040E1
:102130000000014090F83E30202B01D00220704773
:1021400059B152B190F83C30012B08D0012380F8EE
:102150003C300023036300F0C7BE0120704702201B
:102160007047000030B400682349884242D12348B8
:102170000021037822480278A2B90446621C94F830
:1021800091410A2B12D00D2B2ED0A35490F89121FF
:10219000521CD2B280F89121642A03D380F89111A5
:1021A00080F894110278012A0DD01DE00CB10125B0
:1021B00000E0002580F89351012580F89451A15446
:1021C00080F89111EEE70E4A90F89141C932A3547C
:1021D00090F89121521CD2B280F89121642A03D345
:1021E00080F8911180F8941130BC01220349054810
:1021F000FFF7A0BF30BC7047003801400E00002040
:10220000D80C0020A80300202DE9F84304460E4610
:1022100015461F4694F83D00202802D00220BDE854
:10222000F883C6B1BDB194F83C00012816D0012056
:1022300084F83C004FF00009C4F84090212084F855
:102240003D00FEF7F5FC8046A584E584A068B0F566
:10225000805F06D007E00120BDE8F8830220BDE8DA
:10226000F883206980B13546002684F83C90E08CE4
:10227000B8B14346002280212046009700F07EFE40
:1022800020B10320BDE8F8830025EEE7A5B1216861
:10229000287848606D1CE08C401EE084E08C0028AB
:1022A000E7D14346002240212046009700F066FE19
:1022B00048B10320BDE8F88330882168C0F30800E6
:1022C0004860B61CE7E7202084F83D000020BDE808
:1022D000F88300BF7047000070B5E0B04FF496710E
:1022E00015A8FDF758FF2C2201A9224800F0DAFBBF
:1022F000002221A101A800F0F9FBE8B1002221A1F0
:1023000001A800F0F3FB00281DD000221FA101A8A6
:1023100000F0ECFB010001A80BAD06AC1AD00246A0
:1023200023461BA11E48009501F0F8FB1DA000F0FC
:1023300069FE60B0002070BD21A324A226A1184828
:1023400001F0ECFBF5E710212C48FEF75BFC0246A0
:102350002BA10AE02046FDF729FF2F4E30602846CA
:10236000FDF724FF22462DA130600D4801F0D6FB79
:10237000DFE70000D90C00206765745F7665727333
:10238000696F6E006765745F696E00007365740045
:102390004E472C25732C25732C25730D0A00000045
:1023A000A8030020362A2A2A2A2A2A2A2A2A2A2A5E
:1023B0002A2A2A2A2A2A2A2A2A2A0D0A0000000062
:1023C00031343A32353A3535000000004D61722023
:1023D0003239203230323300756172745F64656265
:1023E000756720636C69656E742048657820746930
:1023F0006D653A2025732025730D0A000008014001
:102400006F6B2C6765745F696E20675F696E5B2513
:10241000645D200D0A0000001C0000206F6B2C730F
:102420006574204F7574707574202564200D0A0042
:10243000FEE70146002001E0401CC0B211F8012B6C
:10244000002AF9D1704700002DE9F04F85B0002433
:1024500056480094019402940394816941F010015C
:102460008161816901F010010491816941F00401E9
:102470008161816901F004010491816941F00801E1
:102480008161816901F008010491816941F0400195
:102490008161816901F040010491816941F020016D
:1024A00081618069DFF8089100F02000049000222B
:1024B00040F202214846FEF7B4FBDFF8F8A043F2F1
:1024C0003837012239465046FEF7ABFB01224FF464
:1024D000C0714846FEF7A5FBDFF8DCB04FF40148B9
:1024E000002241465846FEF79CFB0122FB2133485F
:1024F000FEF797FB012211463148FEF792FB42F2AC
:102500000100CDE90004694648460294FEF76EFAE0
:1025100040F2823001250226CDE90005CDE90246D0
:1025200069464846FEF762FAF0208DE831006946B8
:102530005846FEF75BFA30208DE831006946484680
:10254000FEF754FA03208DE8310069465046FEF745
:102550004DFA4FF47F408DE8310069461848FEF788
:1025600045FA00970396CDE9015469465046FEF7B7
:102570003DFACDF800800396CDE9015469465846EE
:10258000FEF734FAFB20CDE90005CDE902466946A5
:102590000A48FEF72BFA03960095CDE901546946E7
:1025A0000748FEF723FA05B0BDE8F08F001002409F
:1025B00000100140000C01400008014000140140DF
:1025C0000018014010B586B000241848009401940A
:1025D00002940394049414490594016041F61F4148
:1025E000C0E9011441F28731C0E903148021C0E938
:1025F0000541FFF784F808B172B6FEE74FF480504A
:10260000009069460948FFF78CF908B172B6FEE7F9
:10261000049404A905480594FFF72EF8002801D07A
:1026200072B6FEE706B010BD002C0140E0000020AD
:1026300010B586B0002417480094019402940394C6
:1026400004944FF080410594016041F61F41C0E9B8
:10265000011441F28731C0E9031480218161FFF741
:102660004EF808B172B6FEE74FF48050009069460C
:102670000848FFF756F908B172B6FEE7049404A9BA
:1026800004480594FEF7F8FF002801D072B6FEE773
:1026900006B010BD2801002010B586B000241848EF
:1026A00000940194029403940494144905940160E5
:1026B00041F61F41C0E9011441F28731C0E903141A
:1026C00080218161FFF71BF808B172B6FEE74FF475
:1026D0008050009069460A48FFF723F908B172B6A6
:1026E000FEE7049404A906480594FEF7C5FF0028F8
:1026F00001D072B6FEE706B010BD00000004004035
:102700007001002010B586B0002418480094019490
:1027100002940394049414490594016041F61F4106
:10272000C0E9011441F28731C0E9031480218161BD
:10273000FEF7E5FF08B172B6FEE74FF48050009057
:1027400069460A48FFF7EDF808B172B6FEE704944F
:1027500004A906480594FEF78FFF002801D072B641
:10276000FEE706B010BD000000080040B8010020E0
:1027700010B586B000241848009401940294039484
:10278000049414490594016041F61F41C0E9011405
:1027900041F28731C0E9031480218161FEF7AFFF68
:1027A00008B172B6FEE74FF48050009069460A48BF
:1027B000FFF7B7F808B172B6FEE7049404A906481B
:1027C0000594FEF759FF002801D072B6FEE706B067
:1027D00010BD0000000C00400002002010B586B0C3
:1027E000002418480094019402940394049414491A
:1027F0000594016041F61F41C0E9011441F287319F
:10280000C0E903148021C0E90541FEF778FF08B153
:1028100072B6FEE74FF48050009069460948FFF712
:1028200080F808B172B6FEE7049404A9054805943F
:10283000FEF722FF002801D072B6FEE706B010BDF9
:1028400000340140D8020020FEE700000148FFF7F5
:102850002DB8000028010020FEE7704781B007492D
:102860004FF4FA520968B1FBF2F14843009000BFFF
:102870000098411E0091FAD201B070472C00002050
:102880007047000070B54E4D10212846FEF7BAF98A
:102890004C4CC143206861F3000020602021284691
:1028A000FEF7B0F9C143206861F341002060402188
:1028B0002846FEF7A7F9C143206861F38200206033
:1028C00080212846FEF79EF9C14320683E4D61F302
:1028D000C300206010212846FEF794F9C143206808
:1028E00061F30410206020212846FEF78BF9C143D4
:1028F0002068364D61F34510206001212846FEF71F
:1029000081F9C143206861F38610206002212846C6
:10291000FEF778F9C143206861F3C710A9152C4D63
:1029200020602846FEF76EF9C143206861F3082055
:10293000206069152846FEF765F9C143206861F3F8
:102940004920206029152846FEF75CF9C14320681C
:1029500061F38A202060E9142846FEF753F9C14349
:10296000206861F3CB202060A9142846FEF74AF9BD
:10297000C143206861F30C30206069142846FEF7DB
:1029800041F9C143206861F34D3020604FF480412C
:102990002846FEF737F9C143206861F38E30206086
:1029A0004FF400412846FEF72DF92168C04360F33B
:1029B000CF312160BDE8704006A000F023BB0000CD
:1029C000000801401800002000100140000C0140E8
:1029D00000180140496E7075742E414C4C2069738B
:1029E00020253035580D0A0024480168244A41F357
:1029F000C000401CC2F89C01224841F30012521C46
:102A0000C0F8A42141F34012521CC0F8A02141F3A8
:102A10008012521CC0F8942141F3C012521CC0F81D
:102A2000902141F30022521CC0F88C21164841F33A
:102A30004022521CC0F89C2141F38022521CC0F855
:102A4000982141F3C022521CC0F8942141F3003276
:102A5000521CC0F8902141F34032521CC0F88C2126
:102A600041F38032521CC0F8842141F3C032521C21
:102A7000C0F8802105A000F0C5BA00001C000020AD
:102A80000000234200802142008022424F75747072
:102A900075742E414C4C20697320253035580D0A31
:102AA00000000000F0B500231C461D4612E09642CF
:102AB00008D103EB830601EB86065B1C3555DBB2C0
:102AC000002406E003EB830701EB87073E55641CF7
:102AD000E4B2401C0678002EE9D103EB830001EB41
:102AE00080005B1C0555D8B2F0BD000030B50B4628
:102AF000044672B10020521E08E000BF14F8011B0A
:102B000013F8015BA94212D1401CC0B29042F5DB20
:102B100015E0FFF78EFC05461846FFF78AFC854254
:102B200005D106E013F8011B641C884201D0012086
:102B300030BD20780028F5D119780029F2D1002085
:102B400030BDFEF79DB930B58FB028216846FDF73E
:102B500022FB14210AA8FDF71EFB01210804CDE980
:102B600000100024029402250491CDE907504FF48F
:102B7000E01009906846FEF753FB08B172B6FEE715
:102B80000F20CDE90A054FF48060CDE90C40022109
:102B90000AA80E94FEF722FA002801D072B6FEE7CA
:102BA0000FB030BD704700000148FEF72DBF000098
:102BB000E00000200148FEF727BF000028010020A8
:102BC0000148FEF721BF0000700100200148FEF718
:102BD0001BBF0000B80100200148FEF715BF000030
:102BE000000200200148FEF70FBF0000480200204D
:102BF0000148FEF709BF0000900200200148FEF7DF
:102C000003BF0000D8020020F0B40268DFF874C0EF
:102C10001D4C1E4D1E4E1F4B60450AD0984208D0D9
:102C2000B0F1804F05D0A04203D0A84201D0B042FD
:102C300003D122F070024F683A4360450AD09842AF
:102C400008D0B0F1804F05D0A04203D0A84201D0F7
:102C5000B04203D122F44072CC6822434C6922F086
:102C60008002224302608A68C2620A68826260450A
:102C700001D0984201D10969016301214161F0BC91
:102C800070470000002C0140000400400008004094
:102C9000000C004000340140D0F808C02CF47F4CF8
:102CA00042EA0322114341EA0C01816070478268C5
:102CB00022F07002114341F0070181607047036AFE
:102CC000D0F820C02CF0010CC0F820C0D0F818C0FB
:102CD0002CF0F00C4CEA021223F00A031943826133
:102CE00001627047036A23F010030362D0F818C032
:102CF000036A2CF4704C4CEA023223F0A00343EA3E
:102D0000011182610162704710B5406A0021C185DE
:102D1000C184FEF7EBFF10BD0168CA6822F490720F
:102D2000CA6001684A6922F001024A61016B012907
:102D300004D10168CA6822F01002CA60202180F81C
:102D40003E1000210163704710B50168CA6822F087
:102D50004002CA60202180F83D10FFF7BAFA002037
:102D600010BD08B590F83E10222901D0022008BD00
:102D70008268B2F5805F01D1016929B1816AB2F53B
:102D8000805F1DD052B10BE0816A02685268C2F3C5
:102D900008020A80816A891C816209E002697AB1AD
:102DA0000268526802F07F020A70816A491C8162DF
:102DB000C18D491E0904090CC18505D0002008BD3C
:102DC000026852680A70F0E70168CA6822F02002BF
:102DD000CA600168CA6822F48072CA6001684A69E0
:102DE00022F001024A61202180F83E10016B012986
:102DF00003D0FFF7B7F9002008BD00210163016887
:102E0000CA6822F01002CA6001680A6812F0100F46
:102E100002D00A6849680091818DFEF766FFEAE7F3
:102E200070B5044620680169E26821F440511143FD
:102E300001612169A0680843616901432068C26893
:102E400022F4037222F4A0521143C1602068416948
:102E5000A26921F44071114341612068A0F18041D1
:102E6000B1F59C313AD0FEF77FF900EBC00101EBE0
:102E7000001061681B4A8900B0FBF1F3A2FB035309
:102E8000B0FBF1FC5B096FF018056B430CEB83039F
:102E90004FF0320C0CEB0313A2FB03535B0903F05E
:102EA000F005B0FBF1F3A2FB03635B0905EB031331
:102EB000B0FBF1F5B0FBF1F0A2FB001040096FF0A0
:102EC0001801484305EB80000CEB0010A2FB00103A
:102ED0002168C0F343101844886070BDFEF754F9B0
:102EE000C3E700001F85EB5181628285C285002106
:102EF0000164222280F83E2080F83C100168CA68F4
:102F000042F48072CA6001684A6942F001024A6173
:102F10000068C16841F02001C1600020704790F84E
:102F20003D10212901D0022070478168B1F5805FF2
:102F300001D1016961B1016A4A1C02620268097823
:102F40005160C18C491E0904090CC1840AD013E0E8
:102F5000016A02680988C1F308015160016A891C8D
:102F60000162EEE70168CA6822F08002CA60006868
:102F7000C16841F04001C160002070472DE9F04177
:102F80000446069D884617461E462068006838EAB3
:102F9000000020D00020B84227D1B5F1FF3F1CD05F
:102FA00025B1FDF745FE801BA84216D92068C168EF
:102FB00021F4D071C1602068416921F001014161B3
:102FC000202084F83D0084F83E00002084F83C0076
:102FD0000320BDE8F0810120DDE72068006838EAC1
:102FE000000005D00020B842D7D00020BDE8F08115
:102FF0000120F8E70148FEF77BBE0000A80300208F
:10300000FEE700000FB4054B10B503A9044A02986F
:1030100000F0F4F810BC5DF814FB00004139000822
:10302000300000207CB5044600201D4616460029CD
:103030000BD0491ECDE90041044B6A462946304673
:1030400000F0DCF8009A002111707CBD2B390008DB
:10305000004870473400002002E008C8121F08C171
:10306000002AFAD170477047002001E001C1121F09
:10307000002AFBD1704700002DE9FF5F82B00021DC
:10308000DDE90430020DDDF840B0034318D044F60A
:103090001050A2F2FF3242431514119801281FD09C
:1030A000A5EB0B00401C5FEA000A4FF000064E4FF4
:1030B000DFF83891B046504615D5CAF1000413E048
:1030C000119801244AA3012801D16FEA0B0102984B
:1030D000119AC0E90031C0E9024206B0BDE8F09F94
:1030E000CBF10000DFE704460021404A491842EBDB
:1030F0000450CDE9001012E0E00707D032463B460D
:1031000040464946FDF7E2F98046894632463B464D
:1031100010461946FDF7DAF906460F466410002CF2
:10312000EAD1DDE90401DDE90023BAF1000F06DA96
:10313000FDF7CCF942464B46FDF7C8F905E0FDF72F
:1031400037FA42464B46FDF733FA04460E46002254
:10315000284BFDF7B5FA03D84FF0FF30014607E0E2
:103160000022254B20463146FDF709F9FDF78FFA7D
:10317000102409E0002C0ADB0A220023FDF739F8AD
:10318000039B30321A55641E50EA0102F2D1641CCE
:10319000039AC4F111031444119A012A03D00122A5
:1031A00008430DD10AE0084304D000204FF0110B72
:1031B000119072E7A3EB0B056D1E0DE05B4504DD7E
:1031C0004FF0000205F1010504E003DA4FF00002C0
:1031D000A5F10105002AECD002981199C0E902314D
:1031E000C0E9004579E70000000014400000F03F0E
:1031F000300000000000F0430000E03F2DE9FF4FE9
:1032000095B09B468946064600250FE2252877D1D2
:1032100000242746F84A0121059400E0044316F8EB
:10322000013F203B01FA03F01042F7D130782A2801
:1032300011D06FF02F033078A0F13002092A16D890
:10324000059A44F0020402EB820203EB42021044AE
:10325000761C0590EFE759F8042B0592002A03DA53
:10326000504244F40054059044F00204761C307837
:103270002E2816D116F8010F44F004042A280DD088
:103280006FF02F023078A0F13003092B09D807EB3B
:10329000870302EB4303C718761CF3E759F8047B56
:1032A000761C30786C280FD006DC4C2817D06828A4
:1032B0000DD06A2814D104E0742810D07A280FD1D8
:1032C0000DE044F400140AE044F4801401E044F4F6
:1032D00040147278824202D104F58014761C761C68
:1032E000307866280BD013DC582877D009DC00280A
:1032F00075D04528F6D04628F4D047281AD19DE14C
:1033000018E0632835D0642879D0652812D195E17A
:10331000702873D008DC6728F1D069286FD06E2838
:103320000DD06F2806D1B5E073282CD0752875D044
:10333000782874D05A46179990476D1C75E1C4F3EC
:103340000250022809D003280DD0D9F80010042813
:103350000DD00D6009F1040967E1D9F80010EA17F2
:10336000C1E90052F6E7D9F800100D80F2E70D70C0
:10337000F0E719F8041B8DF8001000208DF801000B
:10338000EA46012003E059F804AB4FF0FF30610733
:103390004FF0000102D40DE008F101018846B94266
:1033A0000FDA8045F8DB1AF808100029F4D108E09C
:1033B00008F1010188468142FADB1AF80810002959
:1033C000F6D105985B46A0EB080721463846179AC8
:1033D00000F094FA284400EB080507E04DE029E1ED
:1033E0000DE01AF8010B5A4617999047B8F10108F9
:1033F000F7D25B4621463846179A13E142E00A228B
:103400000092C4F302524FF0000A022A08D059F881
:1034100004CB032A4FEAEC710AD00DE029E02AE040
:1034200009F1070121F00702F2E802C1914609E023
:103430000FFA8CFC4FEAEC71042A03D14FFA8CFC92
:103440004FEAEC71002907DA0A460021DCF1000C92
:1034500061EB02012D2202E0220504D52B228DF81A
:103460000420012203E0E20701D02022F7E7904682
:1034700059E00A2102E010220DE010214FF0000A6D
:1034800000910BE010224FF0000A44F004040827DA
:10349000009203E008224FF0000A0092C4F30252A7
:1034A000022A05D059F804CB0021032A08D009E0EC
:1034B00009F1070121F00702F2E802C1914605E097
:1034C0001FFA8CFC042A01D10CF0FF0C4FF000080D
:1034D000220728D5702806D0009B83F0100353EAFA
:1034E0000A0305D00EE040228DF80420012208E0F6
:1034F0005CEA010206D030228DF804208DF8050028
:1035000002229046009B83F0080353EA0A030AD183
:103510005CEA010201D1620705D530228DF8042052
:103520004FF001087F1E582804D034A003900EA845
:1035300002900DE036A0F9E753466046009AFCF78A
:1035400058FE84460398825C0298401E02900270E6
:103550005CEA0100F0D1029806A9081A00F1200ADD
:10356000600702D524F4803400E00127574502DDCE
:10357000A7EB0A0000E0002000EB0A01009005988C
:103580004144401A0590E00306D45B462146179A51
:10359000059800F0B3F90544002706E001A85A4653
:1035A000C05D179990476D1C7F1C4745F6DBE00313
:1035B0000CD55B462146179A059800F09FF9054403
:1035C00004E030205A46179990476D1C0099481E18
:1035D00000900029F5DC08E0029802995A4600782C
:1035E000491C0291179990476D1CBAF10001AAF18C
:1035F000010AF1DC65E100000928010030313233B5
:10360000343536373839616263646566000000001E
:103610003031323334353637383941424344454608
:103620000000000000F058F90544761C30780028AE
:103630007FF4ECAD19B02846BDE8F08F620700D4E6
:10364000062709F1070222F0070CFCE80223E146F5
:1036500003F000485FEA080C02D00FF2702C0DE076
:103660005FEA045C02D50FF2682C07E05FEAC47CD5
:1036700002D00FF2602C01E0AFF2700C4FF0FF3877
:1036800023F00043CDF850C065280CD006DC452857
:1036900009D046281DD047283DD13DE0662818D0E6
:1036A00067287ED138E00021112F01DB112000E0D6
:1036B000781CCDE9000106A90EA8FFF7DDFCDDE9C5
:1036C0000F010E9A03910021009207F1010A049163
:1036D0004DE04FF000400097CDE9011006A90EA87B
:1036E000FFF7CAFCDDE90F0203920E9B119900223D
:1036F000DDF80CA00093049211B9791C00EB010ACB
:10370000B7EB0A0004D4C0F1FF3007F1010A0490BE
:10371000AAEB0700019044E0012F00DA0127002105
:10372000112F01DD112000E03846CDE9000106A986
:103730000EA8FFF7A1FCDDE90F010E9A039100210D
:1037400004910092BA4621070CD40399514500DA3E
:103750008A46BAF1010F05DD009AAAF10101515C18
:10376000302908D0B84202DA10F1040F06DA01213C
:10377000CDE9011015E0AAF10101E9E7002805DC17
:10378000049901440491AAEB000102E0411C514557
:1037900000DD8A460499401A401C01904FF0004019
:1037A0000290200704D40198504501DBCDF8048035
:1037B00000208DF84F0002980DF14F07B0F1004F37
:1037C00025D02B200E9002984FF0020800280CDA2A
:1037D000404202902D200E9007E00A210298FCF74B
:1037E000F2FC3031029007F8011DB8F10001A8F198
:1037F0000108F2DC02980028EFD1791E0E980870BB
:10380000307800F0200040F0450007F8020D12A8C3
:10381000C01B00F107081498007800B1012000EBEC
:103820000A01019801EBE07105984144401A401EDD
:103830000590E00306D45B462146179A059800F0F0
:103840005DF805441498007818B15A4617999047C6
:103850006D1CE00324D55B462146179A059800F0BD
:103860004DF805441CE00498002807DBDDE903015E
:10387000884203DD0098405C179901E017993020D9
:103880005A469047049805F10105401C04900198A0
:10389000401E019004D12E205A46179990476D1C66
:1038A000BAF10001AAF1010ADDDC05E017F8010B0D
:1038B0005A46179990476D1CB8F10001A8F101080C
:1038C000F4DC5B462146179A0598ABE62D00000014
:1038D0002B000000200000002DE9F04104460025E7
:1038E0001E461746880404D405E039462020B04718
:1038F0006D1C641EF9D52846BDE8F0812DE9F04124
:10390000044600251E469046C80301D5302700E036
:103910002027880404D505E041463846B0476D1C91
:10392000641EF9D52846BDE8F0814A68002A06D011
:103930000A68531C0B6010704868401E486070474E
:1039400008B502238DF80000012269460248FEF7FF
:103950005BFC012008BD0000A80300201CB5FDF79A
:1039600097FAFFF7F0F8FEF76FFD60485E49604E8A
:1039700000240160C0E901640D14C0E903454461FD
:103980008461C4610462FDF759F908B172B6FEE7BB
:103990005648584954300160C0E90164C0E9034504
:1039A00044618461C4610462FDF748F908B172B6EC
:1039B000FEE7524850494FF4E1360160C0E9016426
:1039C0000C25C460C0E904458461C461FEF790FA27
:1039D00008B172B6FEE74948494944300160C0E980
:1039E0000164C460C0E904458461C461FEF780FAE3
:1039F00008B172B6FEE74148424988300160C0E92B
:103A00000164C460C0E904458461C461FEF770FAD2
:103A100008B172B6FEE739483B49CC300160C0E9D5
:103A20000164C460C0E904458461C461FEF760FAC2
:103A300008B172B6FEE7364834490160C0E9016456
:103A4000C460C0E904458461C461FEF751FA08B15D
:103A500072B6FEE7FEF7B6FDFEF7EAFDFEF71CFEC6
:103A6000FEF786FEFEF74EFE24480094D8388027E5
:103A70000194284941F61F458761C0E9001541F2CC
:103A80008736C0E90246FDF73AFE08B172B6FEE796
:103A90001A4800946946D8380194FDF7EDFD08B145
:103AA00072B6FEE715480094903801941A49876170
:103AB000C0E90015C0E90246FDF721FE08B172B663
:103AC000FEE70E480094694690380194FDF7D4FD56
:103AD00008B172B6FEE7FEF781FE00F035F800BFD0
:103AE00000F0D4F8FCE7000000540040380000204B
:103AF000A086010000580040004C00402003002038
:103B000000500040003801400044004000480040A0
:103B10003004002000100040001400400FB44FF4A7
:103B2000006110B5044604AB0648039AFFF77AFA21
:103B300082B24FF6FF7303492046FEF765FB10BCC7
:103B40005DF814FBD804002010B52D48FDF7D7FD13
:103B50002C48FDF7D4FD2C48FDF7D1FD2B48FDF78F
:103B6000CEFD2B48FDF7CBFD2A48FDF7C8FD2A48BE
:103B7000FDF7C5FD2948FDF7C2FD2148FDF796FE7A
:103B80002048FDF793FE2048FDF790FE1F48FDF703
:103B90008DFE1F48FDF78AFE1E48FDF787FE1E4872
:103BA000FDF784FE1D48FDF781FE1D4905200860D4
:103BB000FEF74CFE1B4800240122047080F891415E
:103BC00019491A48FEF7B6FA1948047000228260B3
:103BD000C26001218174C174447001704174154840
:103BE0000A46016002211448FDF71BF813A0FFF7F5
:103BF00009FABDE8104017A219A11CA0FFF702BAEC
:103C0000E00000202801002070010020B801002001
:103C1000000200204802002090020020D80200206C
:103C200008000020D80C00200E000020A80300206F
:103C30007804002000000020001001405468652036
:103C400073797374656D20696E6974206F6B2D2DA7
:103C50002D0D0A0031343A32353A35350000000076
:103C60004D61722032392032303233002D2D2D2D0E
:103C70002D2D2D2D2D2D2D2D2D2D2D2D2D2D2D2D74
:103C80002D3A2025732025730D0A000010B5FEF78C
:103C9000F9FDFEF7A9FE074C94F89301002807D020
:103CA000002084F89301FEF717FB601CFCF7B6FDBB
:103CB00010BD0000D80C0020000000000000000033
:103CC00001020304060708090000000001020304C2
:103CD000004040404040404040404141414141401F
:103CE00040404040404040404040404040404040D4
:103CF0004005020202020202020202020202020263
:103D00000220202020202020202020020202020267
:103D100002029090909090901010101010101010BF
:103D200010101010101010101010101002020202CB
:103D3000020288888888888808080808080808080F
:103D4000080808080808080808080808020202020B
:103D500040000000D13C0008783D00080000002031
:103D60003800000058300008B03D0008380000203E
:103D7000D0130000683000080100000000000000BF
:103D8000000000000D0A000000000000000000001C
:103D90000000000000000000010000001000000012
:103DA000000000000024F4000000000000000000FB
:0400000508000131BD
:00000001FF
